:100000000C942A000C943C000C943C000C943C0092
:100010000C943C000C943C000C943C000C943C0070
:100020000C943C000C943E000C943C000C943C005E
:100030000C943C000C943C000C943C000C943C0050
:100040000C943C000C943C000C943C000C943C0040
:100050000C943C0011241FBECFE5D4E0DEBFCDBF21
:1000600020E0A0E6B0E001C01D92A836B207E1F79B
:100070000E94C9000C9459010C9400001F920F9229
:100080000FB60F9211242F933F934F935F936F936B
:100090007F938F939F93AF9382E882BF20916000FC
:1000A0003091610040916200509163006091640062
:1000B000709165008091660090916700A1E00E94B8
:1000C00039012093600030936100409362005093A7
:1000D0006300609364007093650080936600909362
:1000E0006700AF919F918F917F916F915F914F9139
:1000F0003F912F910F900FBE0F901F901895CF93A7
:10010000DF93EB01FA0121E022BB2AE030E0B901E4
:100110000E94250165BBAFECB7E01197F1F700C075
:10012000000092E092BB85BB8FEC97E00197F1F75E
:1001300000C0000084E082BBCE01B9010E9425010D
:1001400065BBAFECB7E01197F1F700C0000098E095
:1001500092BB85BB8FEC97E00197F1F700C00000E0
:1001600080E182BBCF01B9010E94250165BBAFECE4
:10017000B7E01197F1F700C0000090E292BB85BB99
:10018000EFECF7E03197F1F700C00000DF91CF917D
:1001900008958FEF84BB81BB15BA12BA83E083BF89
:1001A00082E882BF89B7816089BF7894C8E2D0E0D5
:1001B0000F2EF2E3EF2EF12CF02D03E110E0209151
:1001C0006000309161004091620050916300609145
:1001D0006400709165008091660090916700273EF1
:1001E000334041055105610571058105910591F087
:1001F0008CF02196109260001092610010926200C3
:1002000010926300109264001092650010926600D4
:1002100010926700CC33D10529F48FEFE81AF80A61
:10022000C0E0D0E0ECE3EE16F10421F40F5F1F4FC5
:10023000E12CF12C0831110511F400E010E0AE01C1
:10024000B701C8010E947F00BACF97FB072E16F4B2
:10025000009407D077FD09D00E94450107FC05D026
:100260003EF4909581959F4F0895709561957F4FCD
:1002700008950024A7FD00942A0F301D401D501D35
:10028000601D701D801D901D0895AA1BBB1B51E1B0
:1002900007C0AA1FBB1FA617B70710F0A61BB70BF6
:1002A000881F991F5A95A9F780959095BC01CD019B
:0602B0000895F894FFCF51
:00000001FF
