S0170000436C6F636B5573696E6744656C61792E737265632C
S11300000C942A000C9447000C9447000C9447006D
S11300100C9447000C9447000C9447000C94470040
S11300200C9447000C9447000C9447000C94470030
S11300300C9447000C9447000C9447000C94470020
S11300400C9447000C9447000C9447000C94470010
S11300500C94470011241FBECFE5D4E0DEBFCDBF12
S113006010E0A0E6B0E0E0EEF2E002C005900D92F0
S1130070A436B107D9F720E0A4E6B0E001C01D9290
S1130080AE36B207E1F70E9426010C946E010C947F
S11300900000CF93DF932FE784ED90E02150804060
S11300A09040E1F700C000002091660030916700A5
S11300B0409168005091690060916A0070916B00F2
S11300C080916C0090916D00A1E00E944201209308
S11300D06600309367004093680050936900609312
S11300E06A0070936B0080936C0090936D00209174
S11300F066003091670040916800509169006091FA
S11301006A0070916B0080916C0090916D00A9E180
S11301100E944E01C9F4809164009091650001969B
S113012090936500809364001092660010926700BB
S1130130109268001092690010926A0010926B008D
S113014010926C0010926D00809164009091650093
S1130150CC9769F48091600090916100019690932E
S11301606100809360001092650010926400809199
S1130170600090916100CC9769F480916200909145
S11301806300019690936300809362001092610073
S1130190109260008091620090916300489721F46E
S11301A0109263001092620080916200909163004B
S11301B0C0916000D0916100E0916400F09165000D
S11301C021E022BB2AE030E0B9010E942E0165BB88
S11301D0AFECB7E01197F1F700C0000092E092BBDA
S11301E085BB8FEC97E00197F1F700C0000084E035
S11301F082BBCE01B9010E942E0165BBAFECB7E012
S11302001197F1F700C0000098E092BB85BB8FEC1A
S113021097E00197F1F700C0000080E182BBCF01B5
S1130220B9010E942E0165BBAFECB7E01197F1F75D
S113023000C0000090E292BB85BBEFECF7E0319781
S1130240F1F700C00000DF91CF9108958FEF84BBD8
S113025081BB15BA12BA0E944900FDCF97FB072E45
S113026016F4009407D077FD09D00E945A0107FCC8
S113027005D03EF4909581959F4F089570956195B2
S11302807F4F08950024A7FD00942A0F301D401DC0
S1130290501D601D701D801D901D08950024A7FD34
S11302A000942A1730054005500560057005800547
S11302B090050895AA1BBB1B51E107C0AA1FBB1FD1
S11302C0A617B70710F0A61BB70B881F991F5A95DE
S11302D0A9F780959095BC01CD010895F894FFCFBE
S10702E023001300E0
S9030000FC
